{
  "_format": "hh-sol-artifact-1",
  "contractName": "Owned",
  "sourceName": "contracts/Owned.sol",
  "abi": [
    {
      "inputs": [],
      "stateMutability": "nonpayable",
      "type": "constructor"
    },
    {
      "anonymous": false,
      "inputs": [
        {
          "indexed": true,
          "internalType": "address",
          "name": "_from",
          "type": "address"
        },
        {
          "indexed": true,
          "internalType": "address",
          "name": "_to",
          "type": "address"
        }
      ],
      "name": "OwnershipTransferred",
      "type": "event"
    },
    {
      "inputs": [
        {
          "internalType": "address",
          "name": "_addr",
          "type": "address"
        }
      ],
      "name": "addMinter",
      "outputs": [
        {
          "internalType": "bool",
          "name": "",
          "type": "bool"
        }
      ],
      "stateMutability": "nonpayable",
      "type": "function"
    },
    {
      "inputs": [],
      "name": "owner",
      "outputs": [
        {
          "internalType": "address",
          "name": "",
          "type": "address"
        }
      ],
      "stateMutability": "view",
      "type": "function"
    },
    {
      "inputs": [
        {
          "internalType": "address",
          "name": "_addr",
          "type": "address"
        }
      ],
      "name": "removeMinter",
      "outputs": [
        {
          "internalType": "bool",
          "name": "",
          "type": "bool"
        }
      ],
      "stateMutability": "nonpayable",
      "type": "function"
    },
    {
      "inputs": [
        {
          "internalType": "address",
          "name": "_owner",
          "type": "address"
        }
      ],
      "name": "transferOwnership",
      "outputs": [],
      "stateMutability": "nonpayable",
      "type": "function"
    }
  ],
  "bytecode": "0x608060405234801561001057600080fd5b50336000806101000a81548173ffffffffffffffffffffffffffffffffffffffff021916908373ffffffffffffffffffffffffffffffffffffffff16021790555061086b806100606000396000f3fe608060405234801561001057600080fd5b506004361061004c5760003560e01c80633092afd5146100515780638da5cb5b14610081578063983b2d561461009f578063f2fde38b146100cf575b600080fd5b61006b600480360381019061006691906105a2565b6100eb565b6040516100789190610690565b60405180910390f35b61008961024d565b6040516100969190610675565b60405180910390f35b6100b960048036038101906100b491906105a2565b610271565b6040516100c69190610690565b60405180910390f35b6100e960048036038101906100e491906105a2565b6103d2565b005b60008060009054906101000a900473ffffffffffffffffffffffffffffffffffffffff1673ffffffffffffffffffffffffffffffffffffffff163373ffffffffffffffffffffffffffffffffffffffff161461017c576040517f08c379a0000000000000000000000000000000000000000000000000000000008152600401610173906106ab565b60405180910390fd5b600073ffffffffffffffffffffffffffffffffffffffff168273ffffffffffffffffffffffffffffffffffffffff1614156101ec576040517f08c379a00000000000000000000000000000000000000000000000000000000081526004016101e39061070b565b60405180910390fd5b6000600160008473ffffffffffffffffffffffffffffffffffffffff1673ffffffffffffffffffffffffffffffffffffffff16815260200190815260200160002060006101000a81548160ff02191690831515021790555060019050919050565b60008054906101000a900473ffffffffffffffffffffffffffffffffffffffff1681565b60008060009054906101000a900473ffffffffffffffffffffffffffffffffffffffff1673ffffffffffffffffffffffffffffffffffffffff163373ffffffffffffffffffffffffffffffffffffffff1614610302576040517f08c379a00000000000000000000000000000000000000000000000000000000081526004016102f9906106ab565b60405180910390fd5b600073ffffffffffffffffffffffffffffffffffffffff168273ffffffffffffffffffffffffffffffffffffffff161415610372576040517f08c379a0000000000000000000000000000000000000000000000000000000008152600401610369906106cb565b60405180910390fd5b60018060008473ffffffffffffffffffffffffffffffffffffffff1673ffffffffffffffffffffffffffffffffffffffff16815260200190815260200160002060006101000a81548160ff02191690831515021790555060019050919050565b60008054906101000a900473ffffffffffffffffffffffffffffffffffffffff1673ffffffffffffffffffffffffffffffffffffffff163373ffffffffffffffffffffffffffffffffffffffff1614610460576040517f08c379a0000000000000000000000000000000000000000000000000000000008152600401610457906106ab565b60405180910390fd5b600073ffffffffffffffffffffffffffffffffffffffff168173ffffffffffffffffffffffffffffffffffffffff1614156104d0576040517f08c379a00000000000000000000000000000000000000000000000000000000081526004016104c7906106eb565b60405180910390fd5b806000806101000a81548173ffffffffffffffffffffffffffffffffffffffff021916908373ffffffffffffffffffffffffffffffffffffffff1602179055508073ffffffffffffffffffffffffffffffffffffffff1660008054906101000a900473ffffffffffffffffffffffffffffffffffffffff1673ffffffffffffffffffffffffffffffffffffffff167f8be0079c531659141344cd1fd0a4f28419497f9722a3daafe3b4186f6b6457e060405160405180910390a350565b60008135905061059c8161081e565b92915050565b6000602082840312156105b457600080fd5b60006105c28482850161058d565b91505092915050565b6105d48161073c565b82525050565b6105e38161074e565b82525050565b60006105f6601b8361072b565b91506106018261077a565b602082019050919050565b600061061960168361072b565b9150610624826107a3565b602082019050919050565b600061063c60208361072b565b9150610647826107cc565b602082019050919050565b600061065f60168361072b565b915061066a826107f5565b602082019050919050565b600060208201905061068a60008301846105cb565b92915050565b60006020820190506106a560008301846105da565b92915050565b600060208201905081810360008301526106c4816105e9565b9050919050565b600060208201905081810360008301526106e48161060c565b9050919050565b600060208201905081810360008301526107048161062f565b9050919050565b6000602082019050818103600083015261072481610652565b9050919050565b600082825260208201905092915050565b60006107478261075a565b9050919050565b60008115159050919050565b600073ffffffffffffffffffffffffffffffffffffffff82169050919050565b7f4f776e65643a206f6e6c79206f776e65722063616e20646f2069740000000000600082015250565b7f4d696e743a206164642061646472206973207a65726f00000000000000000000600082015250565b7f4f776e65643a20736574207a65726f206164647265737320746f206f776e6572600082015250565b7f4d696e743a2072656d6f76652061646472207a65726f00000000000000000000600082015250565b6108278161073c565b811461083257600080fd5b5056fea26469706673582212209b210722134e9f39700c778c7651178cab8092b16329bd190dd8326c734ceb6764736f6c63430008040033",
  "linkReferences": {},
  "deployedLinkReferences": {}
}