{
  "_format": "hh-sol-artifact-1",
  "contractName": "RandomMask",
  "sourceName": "contracts/RandomMask.sol",
  "abi": [
    {
      "inputs": [],
      "stateMutability": "nonpayable",
      "type": "constructor"
    },
    {
      "anonymous": false,
      "inputs": [
        {
          "indexed": true,
          "internalType": "address",
          "name": "owner",
          "type": "address"
        },
        {
          "indexed": true,
          "internalType": "address",
          "name": "approved",
          "type": "address"
        },
        {
          "indexed": true,
          "internalType": "uint256",
          "name": "tokenId",
          "type": "uint256"
        }
      ],
      "name": "Approval",
      "type": "event"
    },
    {
      "anonymous": false,
      "inputs": [
        {
          "indexed": true,
          "internalType": "address",
          "name": "owner",
          "type": "address"
        },
        {
          "indexed": true,
          "internalType": "address",
          "name": "operator",
          "type": "address"
        },
        {
          "indexed": false,
          "internalType": "bool",
          "name": "approved",
          "type": "bool"
        }
      ],
      "name": "ApprovalForAll",
      "type": "event"
    },
    {
      "anonymous": false,
      "inputs": [
        {
          "indexed": true,
          "internalType": "uint256",
          "name": "tokenId",
          "type": "uint256"
        },
        {
          "indexed": false,
          "internalType": "uint256",
          "name": "randomNumber",
          "type": "uint256"
        }
      ],
      "name": "CreateUnfinishedRandomSVG",
      "type": "event"
    },
    {
      "anonymous": false,
      "inputs": [
        {
          "indexed": true,
          "internalType": "uint256",
          "name": "tokenId",
          "type": "uint256"
        },
        {
          "indexed": false,
          "internalType": "string",
          "name": "tokenURI",
          "type": "string"
        }
      ],
      "name": "CreatedRandomSVG",
      "type": "event"
    },
    {
      "anonymous": false,
      "inputs": [
        {
          "indexed": true,
          "internalType": "address",
          "name": "_from",
          "type": "address"
        },
        {
          "indexed": true,
          "internalType": "address",
          "name": "_to",
          "type": "address"
        }
      ],
      "name": "OwnershipTransferred",
      "type": "event"
    },
    {
      "anonymous": false,
      "inputs": [
        {
          "indexed": true,
          "internalType": "address",
          "name": "from",
          "type": "address"
        },
        {
          "indexed": true,
          "internalType": "address",
          "name": "to",
          "type": "address"
        },
        {
          "indexed": true,
          "internalType": "uint256",
          "name": "tokenId",
          "type": "uint256"
        }
      ],
      "name": "Transfer",
      "type": "event"
    },
    {
      "inputs": [
        {
          "internalType": "address",
          "name": "_addr",
          "type": "address"
        }
      ],
      "name": "addMinter",
      "outputs": [
        {
          "internalType": "bool",
          "name": "",
          "type": "bool"
        }
      ],
      "stateMutability": "nonpayable",
      "type": "function"
    },
    {
      "inputs": [
        {
          "internalType": "address",
          "name": "to",
          "type": "address"
        },
        {
          "internalType": "uint256",
          "name": "tokenId",
          "type": "uint256"
        }
      ],
      "name": "approve",
      "outputs": [],
      "stateMutability": "nonpayable",
      "type": "function"
    },
    {
      "inputs": [
        {
          "internalType": "address",
          "name": "owner",
          "type": "address"
        }
      ],
      "name": "balanceOf",
      "outputs": [
        {
          "internalType": "uint256",
          "name": "",
          "type": "uint256"
        }
      ],
      "stateMutability": "view",
      "type": "function"
    },
    {
      "inputs": [
        {
          "internalType": "bytes32",
          "name": "x",
          "type": "bytes32"
        }
      ],
      "name": "bytes32ToUint256",
      "outputs": [
        {
          "internalType": "uint256",
          "name": "",
          "type": "uint256"
        }
      ],
      "stateMutability": "pure",
      "type": "function"
    },
    {
      "inputs": [
        {
          "internalType": "uint256",
          "name": "",
          "type": "uint256"
        }
      ],
      "name": "colors",
      "outputs": [
        {
          "internalType": "string",
          "name": "",
          "type": "string"
        }
      ],
      "stateMutability": "view",
      "type": "function"
    },
    {
      "inputs": [
        {
          "internalType": "uint256",
          "name": "",
          "type": "uint256"
        }
      ],
      "name": "fill",
      "outputs": [
        {
          "internalType": "string",
          "name": "",
          "type": "string"
        }
      ],
      "stateMutability": "view",
      "type": "function"
    },
    {
      "inputs": [
        {
          "internalType": "string",
          "name": "imageURI",
          "type": "string"
        }
      ],
      "name": "formatTokenURI",
      "outputs": [
        {
          "internalType": "string",
          "name": "",
          "type": "string"
        }
      ],
      "stateMutability": "pure",
      "type": "function"
    },
    {
      "inputs": [
        {
          "internalType": "uint256",
          "name": "_randomNumber",
          "type": "uint256"
        }
      ],
      "name": "generateNextPathCommand",
      "outputs": [
        {
          "internalType": "string",
          "name": "pathCommand",
          "type": "string"
        }
      ],
      "stateMutability": "view",
      "type": "function"
    },
    {
      "inputs": [
        {
          "internalType": "uint256",
          "name": "_randomNumber",
          "type": "uint256"
        }
      ],
      "name": "generatePath",
      "outputs": [
        {
          "internalType": "string",
          "name": "pathSvg",
          "type": "string"
        }
      ],
      "stateMutability": "view",
      "type": "function"
    },
    {
      "inputs": [
        {
          "internalType": "uint256",
          "name": "_randomNumber",
          "type": "uint256"
        }
      ],
      "name": "generatePathCommand",
      "outputs": [
        {
          "internalType": "string",
          "name": "pathCommand",
          "type": "string"
        }
      ],
      "stateMutability": "view",
      "type": "function"
    },
    {
      "inputs": [
        {
          "internalType": "uint256",
          "name": "_randomNumber",
          "type": "uint256"
        }
      ],
      "name": "generateSVG",
      "outputs": [
        {
          "internalType": "string",
          "name": "finalSvg",
          "type": "string"
        }
      ],
      "stateMutability": "view",
      "type": "function"
    },
    {
      "inputs": [
        {
          "internalType": "uint256",
          "name": "tokenId",
          "type": "uint256"
        }
      ],
      "name": "getApproved",
      "outputs": [
        {
          "internalType": "address",
          "name": "",
          "type": "address"
        }
      ],
      "stateMutability": "view",
      "type": "function"
    },
    {
      "inputs": [
        {
          "internalType": "address",
          "name": "owner",
          "type": "address"
        },
        {
          "internalType": "address",
          "name": "operator",
          "type": "address"
        }
      ],
      "name": "isApprovedForAll",
      "outputs": [
        {
          "internalType": "bool",
          "name": "",
          "type": "bool"
        }
      ],
      "stateMutability": "view",
      "type": "function"
    },
    {
      "inputs": [],
      "name": "maxNumberofPathCommands",
      "outputs": [
        {
          "internalType": "uint256",
          "name": "",
          "type": "uint256"
        }
      ],
      "stateMutability": "view",
      "type": "function"
    },
    {
      "inputs": [],
      "name": "maxNumberofPaths",
      "outputs": [
        {
          "internalType": "uint256",
          "name": "",
          "type": "uint256"
        }
      ],
      "stateMutability": "view",
      "type": "function"
    },
    {
      "inputs": [
        {
          "internalType": "bytes32",
          "name": "requestId",
          "type": "bytes32"
        },
        {
          "internalType": "uint256",
          "name": "randomNum",
          "type": "uint256"
        }
      ],
      "name": "mintRandomMask",
      "outputs": [],
      "stateMutability": "nonpayable",
      "type": "function"
    },
    {
      "inputs": [],
      "name": "name",
      "outputs": [
        {
          "internalType": "string",
          "name": "",
          "type": "string"
        }
      ],
      "stateMutability": "view",
      "type": "function"
    },
    {
      "inputs": [],
      "name": "owner",
      "outputs": [
        {
          "internalType": "address",
          "name": "",
          "type": "address"
        }
      ],
      "stateMutability": "view",
      "type": "function"
    },
    {
      "inputs": [
        {
          "internalType": "uint256",
          "name": "tokenId",
          "type": "uint256"
        }
      ],
      "name": "ownerOf",
      "outputs": [
        {
          "internalType": "address",
          "name": "",
          "type": "address"
        }
      ],
      "stateMutability": "view",
      "type": "function"
    },
    {
      "inputs": [
        {
          "internalType": "uint256",
          "name": "",
          "type": "uint256"
        }
      ],
      "name": "pathCommands",
      "outputs": [
        {
          "internalType": "string",
          "name": "",
          "type": "string"
        }
      ],
      "stateMutability": "view",
      "type": "function"
    },
    {
      "inputs": [
        {
          "internalType": "address",
          "name": "_addr",
          "type": "address"
        }
      ],
      "name": "removeMinter",
      "outputs": [
        {
          "internalType": "bool",
          "name": "",
          "type": "bool"
        }
      ],
      "stateMutability": "nonpayable",
      "type": "function"
    },
    {
      "inputs": [
        {
          "internalType": "bytes32",
          "name": "",
          "type": "bytes32"
        }
      ],
      "name": "requestIdToSender",
      "outputs": [
        {
          "internalType": "address",
          "name": "",
          "type": "address"
        }
      ],
      "stateMutability": "view",
      "type": "function"
    },
    {
      "inputs": [
        {
          "internalType": "bytes32",
          "name": "",
          "type": "bytes32"
        }
      ],
      "name": "requestIdToTokenId",
      "outputs": [
        {
          "internalType": "uint256",
          "name": "",
          "type": "uint256"
        }
      ],
      "stateMutability": "view",
      "type": "function"
    },
    {
      "inputs": [
        {
          "internalType": "address",
          "name": "from",
          "type": "address"
        },
        {
          "internalType": "address",
          "name": "to",
          "type": "address"
        },
        {
          "internalType": "uint256",
          "name": "tokenId",
          "type": "uint256"
        }
      ],
      "name": "safeTransferFrom",
      "outputs": [],
      "stateMutability": "nonpayable",
      "type": "function"
    },
    {
      "inputs": [
        {
          "internalType": "address",
          "name": "from",
          "type": "address"
        },
        {
          "internalType": "address",
          "name": "to",
          "type": "address"
        },
        {
          "internalType": "uint256",
          "name": "tokenId",
          "type": "uint256"
        },
        {
          "internalType": "bytes",
          "name": "_data",
          "type": "bytes"
        }
      ],
      "name": "safeTransferFrom",
      "outputs": [],
      "stateMutability": "nonpayable",
      "type": "function"
    },
    {
      "inputs": [
        {
          "internalType": "address",
          "name": "operator",
          "type": "address"
        },
        {
          "internalType": "bool",
          "name": "approved",
          "type": "bool"
        }
      ],
      "name": "setApprovalForAll",
      "outputs": [],
      "stateMutability": "nonpayable",
      "type": "function"
    },
    {
      "inputs": [],
      "name": "size",
      "outputs": [
        {
          "internalType": "uint256",
          "name": "",
          "type": "uint256"
        }
      ],
      "stateMutability": "view",
      "type": "function"
    },
    {
      "inputs": [
        {
          "internalType": "bytes4",
          "name": "interfaceId",
          "type": "bytes4"
        }
      ],
      "name": "supportsInterface",
      "outputs": [
        {
          "internalType": "bool",
          "name": "",
          "type": "bool"
        }
      ],
      "stateMutability": "view",
      "type": "function"
    },
    {
      "inputs": [
        {
          "internalType": "string",
          "name": "svg",
          "type": "string"
        }
      ],
      "name": "svgToImageURI",
      "outputs": [
        {
          "internalType": "string",
          "name": "",
          "type": "string"
        }
      ],
      "stateMutability": "pure",
      "type": "function"
    },
    {
      "inputs": [],
      "name": "symbol",
      "outputs": [
        {
          "internalType": "string",
          "name": "",
          "type": "string"
        }
      ],
      "stateMutability": "view",
      "type": "function"
    },
    {
      "inputs": [],
      "name": "tokenCounter",
      "outputs": [
        {
          "internalType": "uint256",
          "name": "",
          "type": "uint256"
        }
      ],
      "stateMutability": "view",
      "type": "function"
    },
    {
      "inputs": [
        {
          "internalType": "uint256",
          "name": "",
          "type": "uint256"
        }
      ],
      "name": "tokenIdToRandomNumber",
      "outputs": [
        {
          "internalType": "uint256",
          "name": "",
          "type": "uint256"
        }
      ],
      "stateMutability": "view",
      "type": "function"
    },
    {
      "inputs": [
        {
          "internalType": "uint256",
          "name": "tokenId",
          "type": "uint256"
        }
      ],
      "name": "tokenURI",
      "outputs": [
        {
          "internalType": "string",
          "name": "",
          "type": "string"
        }
      ],
      "stateMutability": "view",
      "type": "function"
    },
    {
      "inputs": [
        {
          "internalType": "address",
          "name": "from",
          "type": "address"
        },
        {
          "internalType": "address",
          "name": "to",
          "type": "address"
        },
        {
          "internalType": "uint256",
          "name": "tokenId",
          "type": "uint256"
        }
      ],
      "name": "transferFrom",
      "outputs": [],
      "stateMutability": "nonpayable",
      "type": "function"
    },
    {
      "inputs": [
        {
          "internalType": "address",
          "name": "_owner",
          "type": "address"
        }
      ],
      "name": "transferOwnership",
      "outputs": [],
      "stateMutability": "nonpayable",
      "type": "function"
    }
  ],
  "bytecode": "0x60806040523480156200001157600080fd5b506040518060400160405280601381526020017f536565646c6973742043727970746f4d61736b000000000000000000000000008152506040518060400160405280600b81526020017f47656e657369734d61736b000000000000000000000000000000000000000000815250816000908051906020019062000096929190620004e3565b508060019080519060200190620000af929190620004e3565b50505033600760006101000a81548173ffffffffffffffffffffffffffffffffffffffff021916908373ffffffffffffffffffffffffffffffffffffffff1602179055506000600981905550600a80819055506004600b819055506101f4600c8190555060405180608001604052806040518060400160405280600181526020017f4d0000000000000000000000000000000000000000000000000000000000000081525081526020016040518060400160405280600181526020017f4c0000000000000000000000000000000000000000000000000000000000000081525081526020016040518060400160405280600181526020017f530000000000000000000000000000000000000000000000000000000000000081525081526020016040518060400160405280600181526020017f7100000000000000000000000000000000000000000000000000000000000000815250815250600d9060046200021a92919062000574565b506040518061012001604052806040518060400160405280600381526020017f726564000000000000000000000000000000000000000000000000000000000081525081526020016040518060400160405280600481526020017f626c75650000000000000000000000000000000000000000000000000000000081525081526020016040518060400160405280600581526020017f677265656e00000000000000000000000000000000000000000000000000000081525081526020016040518060400160405280600581526020017f626c61636b00000000000000000000000000000000000000000000000000000081525081526020016040518060400160405280600681526020017f73696c766572000000000000000000000000000000000000000000000000000081525081526020016040518060400160405280600481526020017f706c756d0000000000000000000000000000000000000000000000000000000081525081526020016040518060400160405280600a81526020017f706170617961776869700000000000000000000000000000000000000000000081525081526020016040518060400160405280600c81526020017f6d69646e69676874626c7565000000000000000000000000000000000000000081525081526020016040518060400160405280600981526020017f66697265627269636b0000000000000000000000000000000000000000000000815250815250600e9060096200044a929190620005db565b5060405180604001604052806040518060400160405280600b81526020017f7472616e73706172656e7400000000000000000000000000000000000000000081525081526020016040518060400160405280600581526020017f66616c7365000000000000000000000000000000000000000000000000000000815250815250600f906002620004dc92919062000642565b506200079b565b828054620004f19062000736565b90600052602060002090601f01602090048101928262000515576000855562000561565b82601f106200053057805160ff191683800117855562000561565b8280016001018555821562000561579182015b828111156200056057825182559160200191906001019062000543565b5b509050620005709190620006a9565b5090565b828054828255906000526020600020908101928215620005c8579160200282015b82811115620005c7578251829080519060200190620005b6929190620004e3565b509160200191906001019062000595565b5b509050620005d79190620006c8565b5090565b8280548282559060005260206000209081019282156200062f579160200282015b828111156200062e5782518290805190602001906200061d929190620004e3565b5091602001919060010190620005fc565b5b5090506200063e9190620006c8565b5090565b82805482825590600052602060002090810192821562000696579160200282015b828111156200069557825182908051906020019062000684929190620004e3565b509160200191906001019062000663565b5b509050620006a59190620006c8565b5090565b5b80821115620006c4576000816000905550600101620006aa565b5090565b5b80821115620006ec5760008181620006e29190620006f0565b50600101620006c9565b5090565b508054620006fe9062000736565b6000825580601f1062000712575062000733565b601f016020900490600052602060002090810190620007329190620006a9565b5b50565b600060028204905060018216806200074f57607f821691505b602082108114156200076657620007656200076c565b5b50919050565b7f4e487b7100000000000000000000000000000000000000000000000000000000600052602260045260246000fd5b615c2e80620007ab6000396000f3fe608060405234801561001057600080fd5b50600436106102115760003560e01c80638099267911610125578063b88d4fde116100ad578063d082e3811161007c578063d082e381146106e4578063ddcd522014610702578063e985e9c514610732578063f2fde38b14610762578063fbfcec291461077e57610211565b8063b88d4fde14610638578063bd11f69d14610654578063c68b49d114610684578063c87b56dd146106b457610211565b806395d89b41116100f457806395d89b4114610580578063983b2d561461059e5780639b4af476146105ce5780639c1cd795146105ec578063a22cb4651461061c57610211565b806380992679146104e45780638da5cb5b14610514578063949d225d14610532578063955968d41461055057610211565b80633092afd5116101a857806342842e0e1161017757806342842e0e146104085780636352211e146104245780636dcee4ca1461045457806370a082311461048457806371aee193146104b457610211565b80633092afd51461034857806330d871c61461037857806333af5989146103a85780633fda5389146103d857610211565b806318c21d90116101e457806318c21d90146102b0578063219c0eee146102cc57806322881f88146102fc57806323b872dd1461032c57610211565b806301ffc9a71461021657806306fdde0314610246578063081812fc14610264578063095ea7b314610294575b600080fd5b610230600480360381019061022b9190613fc6565b61079c565b60405161023d9190614923565b60405180910390f35b61024e61087e565b60405161025b919061493e565b60405180910390f35b61027e60048036038101906102799190614059565b610910565b60405161028b91906148bc565b60405180910390f35b6102ae60048036038101906102a99190613f25565b610995565b005b6102ca60048036038101906102c59190613f8a565b610aad565b005b6102e660048036038101906102e19190613f61565b610d04565b6040516102f391906148bc565b60405180910390f35b61031660048036038101906103119190613f61565b610d37565b6040516103239190614c80565b60405180910390f35b61034660048036038101906103419190613e1f565b610d4f565b005b610362600480360381019061035d9190613dba565b610daf565b60405161036f9190614923565b60405180910390f35b610392600480360381019061038d9190614018565b610f12565b60405161039f919061493e565b60405180910390f35b6103c260048036038101906103bd9190614059565b610fab565b6040516103cf919061493e565b60405180910390f35b6103f260048036038101906103ed9190614059565b61137b565b6040516103ff919061493e565b60405180910390f35b610422600480360381019061041d9190613e1f565b611427565b005b61043e60048036038101906104399190614059565b611447565b60405161044b91906148bc565b60405180910390f35b61046e60048036038101906104699190614059565b6114f9565b60405161047b919061493e565b60405180910390f35b61049e60048036038101906104999190613dba565b6115fb565b6040516104ab9190614c80565b60405180910390f35b6104ce60048036038101906104c99190614018565b6116b3565b6040516104db919061493e565b60405180910390f35b6104fe60048036038101906104f99190614059565b611740565b60405161050b919061493e565b60405180910390f35b61051c611c6c565b60405161052991906148bc565b60405180910390f35b61053a611c92565b6040516105479190614c80565b60405180910390f35b61056a60048036038101906105659190614059565b611c98565b604051610577919061493e565b60405180910390f35b610588611d44565b604051610595919061493e565b60405180910390f35b6105b860048036038101906105b39190613dba565b611dd6565b6040516105c59190614923565b60405180910390f35b6105d6611f39565b6040516105e39190614c80565b60405180910390f35b61060660048036038101906106019190614059565b611f3f565b6040516106139190614c80565b60405180910390f35b61063660048036038101906106319190613ee9565b611f57565b005b610652600480360381019061064d9190613e6e565b6120d8565b005b61066e60048036038101906106699190614059565b61213a565b60405161067b919061493e565b60405180910390f35b61069e60048036038101906106999190614059565b6121e6565b6040516106ab919061493e565b60405180910390f35b6106ce60048036038101906106c99190614059565b6125ba565b6040516106db919061493e565b60405180910390f35b6106ec61270c565b6040516106f99190614c80565b60405180910390f35b61071c60048036038101906107179190613f61565b612712565b6040516107299190614c80565b60405180910390f35b61074c60048036038101906107479190613de3565b612843565b6040516107599190614923565b60405180910390f35b61077c60048036038101906107779190613dba565b6128d7565b005b610786612a97565b6040516107939190614c80565b60405180910390f35b60007f80ac58cd000000000000000000000000000000000000000000000000000000007bffffffffffffffffffffffffffffffffffffffffffffffffffffffff1916827bffffffffffffffffffffffffffffffffffffffffffffffffffffffff1916148061086757507f5b5e139f000000000000000000000000000000000000000000000000000000007bffffffffffffffffffffffffffffffffffffffffffffffffffffffff1916827bffffffffffffffffffffffffffffffffffffffffffffffffffffffff1916145b80610877575061087682612a9d565b5b9050919050565b60606000805461088d90615118565b80601f01602080910402602001604051908101604052809291908181526020018280546108b990615118565b80156109065780601f106108db57610100808354040283529160200191610906565b820191906000526020600020905b8154815290600101906020018083116108e957829003601f168201915b5050505050905090565b600061091b82612b07565b61095a576040517f08c379a000000000000000000000000000000000000000000000000000000000815260040161095190614b80565b60405180910390fd5b6004600083815260200190815260200160002060009054906101000a900473ffffffffffffffffffffffffffffffffffffffff169050919050565b60006109a082611447565b90508073ffffffffffffffffffffffffffffffffffffffff168373ffffffffffffffffffffffffffffffffffffffff161415610a11576040517f08c379a0000000000000000000000000000000000000000000000000000000008152600401610a0890614c20565b60405180910390fd5b8073ffffffffffffffffffffffffffffffffffffffff16610a30612b73565b73ffffffffffffffffffffffffffffffffffffffff161480610a5f5750610a5e81610a59612b73565b612843565b5b610a9e576040517f08c379a0000000000000000000000000000000000000000000000000000000008152600401610a9590614a80565b60405180910390fd5b610aa88383612b7b565b505050565b60011515600860003373ffffffffffffffffffffffffffffffffffffffff1673ffffffffffffffffffffffffffffffffffffffff16815260200190815260200160002060009054906101000a900460ff16151514610b40576040517f08c379a0000000000000000000000000000000000000000000000000000000008152600401610b3790614c00565b60405180910390fd5b600073ffffffffffffffffffffffffffffffffffffffff166010600084815260200190815260200160002060009054906101000a900473ffffffffffffffffffffffffffffffffffffffff1673ffffffffffffffffffffffffffffffffffffffff1614610be2576040517f08c379a0000000000000000000000000000000000000000000000000000000008152600401610bd9906149e0565b60405180910390fd5b61520860095410610c28576040517f08c379a0000000000000000000000000000000000000000000000000000000008152600401610c1f90614980565b60405180910390fd5b326010600084815260200190815260200160002060006101000a81548173ffffffffffffffffffffffffffffffffffffffff021916908373ffffffffffffffffffffffffffffffffffffffff160217905550600060095490508060116000858152602001908152602001600020819055506001600954610ca89190614d8e565b600981905550610cb83282612c34565b6000610cc48284612c52565b9050817f15a6487b7915a7116ce2a61d43b17e9b47484b1931f3c79f2f3d139b307b389382604051610cf6919061493e565b60405180910390a250505050565b60106020528060005260406000206000915054906101000a900473ffffffffffffffffffffffffffffffffffffffff1681565b60116020528060005260406000206000915090505481565b610d60610d5a612b73565b82612daf565b610d9f576040517f08c379a0000000000000000000000000000000000000000000000000000000008152600401610d9690614c40565b60405180910390fd5b610daa838383612e8d565b505050565b6000600760009054906101000a900473ffffffffffffffffffffffffffffffffffffffff1673ffffffffffffffffffffffffffffffffffffffff163373ffffffffffffffffffffffffffffffffffffffff1614610e41576040517f08c379a0000000000000000000000000000000000000000000000000000000008152600401610e3890614960565b60405180910390fd5b600073ffffffffffffffffffffffffffffffffffffffff168273ffffffffffffffffffffffffffffffffffffffff161415610eb1576040517f08c379a0000000000000000000000000000000000000000000000000000000008152600401610ea890614c60565b60405180910390fd5b6000600860008473ffffffffffffffffffffffffffffffffffffffff1673ffffffffffffffffffffffffffffffffffffffff16815260200190815260200160002060006101000a81548160ff02191690831515021790555060019050919050565b606060006040518060400160405280601a81526020017f646174613a696d6167652f7376672b786d6c3b6261736536342c00000000000081525090506000610f7884604051602001610f649190614684565b6040516020818303038152906040526130e9565b905060008282604051602001610f8f92919061469b565b6040516020818303038152906040529050809350505050919050565b606060006001600b5484610fbf91906151c4565b610fc99190614d8e565b90506040518060400160405280600981526020017f3c7061746820643d270000000000000000000000000000000000000000000000815250915060005b818110156110915760008482600c5461101f9190614d8e565b604051602001611030929190614c9b565b6040516020818303038152906040528051906020012060001c90506000611056826121e6565b9050848160405160200161106b92919061469b565b6040516020818303038152906040529450505080806110899061517b565b915050611006565b5060005b818110156111205760008482600c546110ae9190614d8e565b6040516020016110bf929190614c9b565b6040516020818303038152906040528051906020012060001c905060006110e586611740565b905084816040516020016110fa92919061469b565b6040516020818303038152906040529450505080806111189061517b565b915050611095565b506000600e80805490508561113591906151c4565b8154811061116c577f4e487b7100000000000000000000000000000000000000000000000000000000600052603260045260246000fd5b90600052602060002001805461118190615118565b80601f01602080910402602001604051908101604052809291908181526020018280546111ad90615118565b80156111fa5780601f106111cf576101008083540402835291602001916111fa565b820191906000526020600020905b8154815290600101906020018083116111dd57829003601f168201915b505050505090506000600f80805490508661121591906151c4565b8154811061124c577f4e487b7100000000000000000000000000000000000000000000000000000000600052603260045260246000fd5b90600052602060002001805461126190615118565b80601f016020809104026020016040519081016040528092919081815260200182805461128d90615118565b80156112da5780601f106112af576101008083540402835291602001916112da565b820191906000526020600020905b8154815290600101906020018083116112bd57829003601f168201915b50505050509050611320816040518060400160405280600b81526020017f7472616e73706172656e74000000000000000000000000000000000000000000815250613288565b1561134e5783826040516020016113389291906146f9565b6040516020818303038152906040529350611373565b83826040516020016113619291906146bf565b60405160208183030381529060405293505b505050919050565b600f818154811061138b57600080fd5b9060005260206000200160009150905080546113a690615118565b80601f01602080910402602001604051908101604052809291908181526020018280546113d290615118565b801561141f5780601f106113f45761010080835404028352916020019161141f565b820191906000526020600020905b81548152906001019060200180831161140257829003601f168201915b505050505081565b611442838383604051806020016040528060008152506120d8565b505050565b6000806002600084815260200190815260200160002060009054906101000a900473ffffffffffffffffffffffffffffffffffffffff169050600073ffffffffffffffffffffffffffffffffffffffff168173ffffffffffffffffffffffffffffffffffffffff1614156114f0576040517f08c379a00000000000000000000000000000000000000000000000000000000081526004016114e790614ae0565b60405180910390fd5b80915050919050565b606060006001600a548461150d91906151c4565b6115179190614d8e565b9050611524600c546132e1565b61152f600c546132e1565b604051602001611540929190614877565b604051602081830303815290604052915060005b818110156115d25760008482604051602001611571929190614c9b565b6040516020818303038152906040528051906020012060001c9050600061159782610fab565b905084816040516020016115ac92919061469b565b6040516020818303038152906040529450505080806115ca9061517b565b915050611554565b50816040516020016115e49190614785565b604051602081830303815290604052915050919050565b60008073ffffffffffffffffffffffffffffffffffffffff168273ffffffffffffffffffffffffffffffffffffffff16141561166c576040517f08c379a000000000000000000000000000000000000000000000000000000000815260040161166390614aa0565b60405180910390fd5b600360008373ffffffffffffffffffffffffffffffffffffffff1673ffffffffffffffffffffffffffffffffffffffff168152602001908152602001600020549050919050565b606060006040518060400160405280601d81526020017f646174613a6170706c69636174696f6e2f6a736f6e3b6261736536342c0000008152509050806117188460405160200161170491906147a7565b6040516020818303038152906040526130e9565b60405160200161172992919061469b565b604051602081830303815290604052915050919050565b6060600d80805490508361175491906151c4565b8154811061178b577f4e487b7100000000000000000000000000000000000000000000000000000000600052603260045260246000fd5b9060005260206000200180546117a090615118565b80601f01602080910402602001604051908101604052809291908181526020018280546117cc90615118565b80156118195780601f106117ee57610100808354040283529160200191611819565b820191906000526020600020905b8154815290600101906020018083116117fc57829003601f168201915b5050505050905061185f816040518060400160405280600181526020017f7100000000000000000000000000000000000000000000000000000000000000815250613288565b806118a557506118a4816040518060400160405280600181526020017f5300000000000000000000000000000000000000000000000000000000000000815250613288565b5b15611a29576000600c54836002600c546118bf9190614fbd565b6040516020016118d0929190614c9b565b6040516020818303038152906040528051906020012060001c6118f391906151c4565b90506000600c54846003600c5461190a9190614fbd565b60405160200161191b929190614c9b565b6040516020818303038152906040528051906020012060001c61193e91906151c4565b90506000600c54856004600c546119559190614fbd565b604051602001611966929190614c9b565b6040516020818303038152906040528051906020012060001c61198991906151c4565b90506000600c54866005600c546119a09190614fbd565b6040516020016119b1929190614c9b565b6040516020818303038152906040528051906020012060001c6119d491906151c4565b9050846119e0856132e1565b6119e9856132e1565b6119f2856132e1565b6119fb856132e1565b604051602001611a0f9594939291906147f5565b604051602081830303815290604052945050505050611c67565b611a68816040518060400160405280600181526020017f4d00000000000000000000000000000000000000000000000000000000000000815250613288565b80611aae5750611aad816040518060400160405280600181526020017f4c00000000000000000000000000000000000000000000000000000000000000815250613288565b5b15611c66576040518060400160405280600181526020017f530000000000000000000000000000000000000000000000000000000000000081525090506000600c54836002600c54611b009190614fbd565b604051602001611b11929190614c9b565b6040516020818303038152906040528051906020012060001c611b3491906151c4565b90506000600c54846003600c54611b4b9190614fbd565b604051602001611b5c929190614c9b565b6040516020818303038152906040528051906020012060001c611b7f91906151c4565b90506000600c54856004600c54611b969190614fbd565b604051602001611ba7929190614c9b565b6040516020818303038152906040528051906020012060001c611bca91906151c4565b90506000600c54866005600c54611be19190614fbd565b604051602001611bf2929190614c9b565b6040516020818303038152906040528051906020012060001c611c1591906151c4565b905084611c21856132e1565b611c2a856132e1565b611c33856132e1565b611c3c856132e1565b604051602001611c509594939291906147f5565b6040516020818303038152906040529450505050505b5b919050565b600760009054906101000a900473ffffffffffffffffffffffffffffffffffffffff1681565b600c5481565b600d8181548110611ca857600080fd5b906000526020600020016000915090508054611cc390615118565b80601f0160208091040260200160405190810160405280929190818152602001828054611cef90615118565b8015611d3c5780601f10611d1157610100808354040283529160200191611d3c565b820191906000526020600020905b815481529060010190602001808311611d1f57829003601f168201915b505050505081565b606060018054611d5390615118565b80601f0160208091040260200160405190810160405280929190818152602001828054611d7f90615118565b8015611dcc5780601f10611da157610100808354040283529160200191611dcc565b820191906000526020600020905b815481529060010190602001808311611daf57829003601f168201915b5050505050905090565b6000600760009054906101000a900473ffffffffffffffffffffffffffffffffffffffff1673ffffffffffffffffffffffffffffffffffffffff163373ffffffffffffffffffffffffffffffffffffffff1614611e68576040517f08c379a0000000000000000000000000000000000000000000000000000000008152600401611e5f90614960565b60405180910390fd5b600073ffffffffffffffffffffffffffffffffffffffff168273ffffffffffffffffffffffffffffffffffffffff161415611ed8576040517f08c379a0000000000000000000000000000000000000000000000000000000008152600401611ecf90614ac0565b60405180910390fd5b6001600860008473ffffffffffffffffffffffffffffffffffffffff1673ffffffffffffffffffffffffffffffffffffffff16815260200190815260200160002060006101000a81548160ff02191690831515021790555060019050919050565b600b5481565b60126020528060005260406000206000915090505481565b611f5f612b73565b73ffffffffffffffffffffffffffffffffffffffff168273ffffffffffffffffffffffffffffffffffffffff161415611fcd576040517f08c379a0000000000000000000000000000000000000000000000000000000008152600401611fc490614a20565b60405180910390fd5b8060056000611fda612b73565b73ffffffffffffffffffffffffffffffffffffffff1673ffffffffffffffffffffffffffffffffffffffff16815260200190815260200160002060008473ffffffffffffffffffffffffffffffffffffffff1673ffffffffffffffffffffffffffffffffffffffff16815260200190815260200160002060006101000a81548160ff0219169083151502179055508173ffffffffffffffffffffffffffffffffffffffff16612087612b73565b73ffffffffffffffffffffffffffffffffffffffff167f17307eab39ab6107e8899845ad3d59bd9653f200f220920489ca2b5937696c31836040516120cc9190614923565b60405180910390a35050565b6120e96120e3612b73565b83612daf565b612128576040517f08c379a000000000000000000000000000000000000000000000000000000000815260040161211f90614c40565b60405180910390fd5b612134848484846134b6565b50505050565b600e818154811061214a57600080fd5b90600052602060002001600091509050805461216590615118565b80601f016020809104026020016040519081016040528092919081815260200182805461219190615118565b80156121de5780601f106121b3576101008083540402835291602001916121de565b820191906000526020600020905b8154815290600101906020018083116121c157829003601f168201915b505050505081565b6060600d8080549050836121fa91906151c4565b81548110612231577f4e487b7100000000000000000000000000000000000000000000000000000000600052603260045260246000fd5b90600052602060002001805461224690615118565b80601f016020809104026020016040519081016040528092919081815260200182805461227290615118565b80156122bf5780601f10612294576101008083540402835291602001916122bf565b820191906000526020600020905b8154815290600101906020018083116122a257829003601f168201915b50505050509050612305816040518060400160405280600181526020017f4d00000000000000000000000000000000000000000000000000000000000000815250613288565b8061234b575061234a816040518060400160405280600181526020017f4c00000000000000000000000000000000000000000000000000000000000000815250613288565b5b15612423576000600c54836002600c546123659190614fbd565b604051602001612376929190614c9b565b6040516020818303038152906040528051906020012060001c61239991906151c4565b90506000600c54846003600c546123b09190614fbd565b6040516020016123c1929190614c9b565b6040516020818303038152906040528051906020012060001c6123e491906151c4565b9050826123f0836132e1565b6123f9836132e1565b60405160200161240b93929190614733565b604051602081830303815290604052925050506125b5565b612462816040518060400160405280600181526020017f5300000000000000000000000000000000000000000000000000000000000000815250613288565b806124a857506124a7816040518060400160405280600181526020017f7100000000000000000000000000000000000000000000000000000000000000815250613288565b5b156125b4576040518060400160405280600181526020017f4d0000000000000000000000000000000000000000000000000000000000000081525090506000600c54836002600c546124fa9190614fbd565b60405160200161250b929190614c9b565b6040516020818303038152906040528051906020012060001c61252e91906151c4565b90506000600c54846003600c546125459190614fbd565b604051602001612556929190614c9b565b6040516020818303038152906040528051906020012060001c61257991906151c4565b905082612585836132e1565b61258e836132e1565b6040516020016125a093929190614733565b604051602081830303815290604052925050505b5b919050565b60606125c582612b07565b612604576040517f08c379a00000000000000000000000000000000000000000000000000000000081526004016125fb90614b60565b60405180910390fd5b600060066000848152602001908152602001600020805461262490615118565b80601f016020809104026020016040519081016040528092919081815260200182805461265090615118565b801561269d5780601f106126725761010080835404028352916020019161269d565b820191906000526020600020905b81548152906001019060200180831161268057829003601f168201915b5050505050905060006126ae613512565b90506000815114156126c4578192505050612707565b6000825111156126f95780826040516020016126e192919061469b565b60405160208183030381529060405292505050612707565b61270284613529565b925050505b919050565b60095481565b6000806000602081101561283957600060ff6008836127319190614fbd565b8660001c901c1690508060301115801561274c575060398111155b156127875781600a61275e9190614e9f565b60308261276b9190615017565b6127759190614fbd565b836127809190614d8e565b9250612837565b806041111580156127995750605a8111155b156127e05781600a6127ab9190614e9f565b600a6041836127ba9190615017565b6127c49190614d8e565b6127ce9190614fbd565b836127d99190614d8e565b9250612836565b806061111580156127f25750607a8111155b156128355781600a6128049190614e9f565b600a6061836128139190615017565b61281d9190614d8e565b6128279190614fbd565b836128329190614d8e565b92505b5b5b505b5080915050919050565b6000600560008473ffffffffffffffffffffffffffffffffffffffff1673ffffffffffffffffffffffffffffffffffffffff16815260200190815260200160002060008373ffffffffffffffffffffffffffffffffffffffff1673ffffffffffffffffffffffffffffffffffffffff16815260200190815260200160002060009054906101000a900460ff16905092915050565b600760009054906101000a900473ffffffffffffffffffffffffffffffffffffffff1673ffffffffffffffffffffffffffffffffffffffff163373ffffffffffffffffffffffffffffffffffffffff1614612967576040517f08c379a000000000000000000000000000000000000000000000000000000000815260040161295e90614960565b60405180910390fd5b600073ffffffffffffffffffffffffffffffffffffffff168173ffffffffffffffffffffffffffffffffffffffff1614156129d7576040517f08c379a00000000000000000000000000000000000000000000000000000000081526004016129ce90614ba0565b60405180910390fd5b80600760006101000a81548173ffffffffffffffffffffffffffffffffffffffff021916908373ffffffffffffffffffffffffffffffffffffffff1602179055508073ffffffffffffffffffffffffffffffffffffffff16600760009054906101000a900473ffffffffffffffffffffffffffffffffffffffff1673ffffffffffffffffffffffffffffffffffffffff167f8be0079c531659141344cd1fd0a4f28419497f9722a3daafe3b4186f6b6457e060405160405180910390a350565b600a5481565b60007f01ffc9a7000000000000000000000000000000000000000000000000000000007bffffffffffffffffffffffffffffffffffffffffffffffffffffffff1916827bffffffffffffffffffffffffffffffffffffffffffffffffffffffff1916149050919050565b60008073ffffffffffffffffffffffffffffffffffffffff166002600084815260200190815260200160002060009054906101000a900473ffffffffffffffffffffffffffffffffffffffff1673ffffffffffffffffffffffffffffffffffffffff1614159050919050565b600033905090565b816004600083815260200190815260200160002060006101000a81548173ffffffffffffffffffffffffffffffffffffffff021916908373ffffffffffffffffffffffffffffffffffffffff160217905550808273ffffffffffffffffffffffffffffffffffffffff16612bee83611447565b73ffffffffffffffffffffffffffffffffffffffff167f8c5be1e5ebec7d5bd14f71427d1e84f3dd0314c0f7b2291e5b200ac8c7c3b92560405160405180910390a45050565b612c4e8282604051806020016040528060008152506135d0565b5050565b606060011515600860003373ffffffffffffffffffffffffffffffffffffffff1673ffffffffffffffffffffffffffffffffffffffff16815260200190815260200160002060009054906101000a900460ff16151514612ce7576040517f08c379a0000000000000000000000000000000000000000000000000000000008152600401612cde90614c00565b60405180910390fd5b6000612cf2846125ba565b511115612d34576040517f08c379a0000000000000000000000000000000000000000000000000000000008152600401612d2b90614a60565b60405180910390fd5b8260095411612d78576040517f08c379a0000000000000000000000000000000000000000000000000000000008152600401612d6f90614b20565b60405180910390fd5b612d81826114f9565b90506000612d8e82610f12565b90506000612d9b826116b3565b9050612da7858261362b565b505092915050565b6000612dba82612b07565b612df9576040517f08c379a0000000000000000000000000000000000000000000000000000000008152600401612df090614a40565b60405180910390fd5b6000612e0483611447565b90508073ffffffffffffffffffffffffffffffffffffffff168473ffffffffffffffffffffffffffffffffffffffff161480612e7357508373ffffffffffffffffffffffffffffffffffffffff16612e5b84610910565b73ffffffffffffffffffffffffffffffffffffffff16145b80612e845750612e838185612843565b5b91505092915050565b8273ffffffffffffffffffffffffffffffffffffffff16612ead82611447565b73ffffffffffffffffffffffffffffffffffffffff1614612f03576040517f08c379a0000000000000000000000000000000000000000000000000000000008152600401612efa90614bc0565b60405180910390fd5b600073ffffffffffffffffffffffffffffffffffffffff168273ffffffffffffffffffffffffffffffffffffffff161415612f73576040517f08c379a0000000000000000000000000000000000000000000000000000000008152600401612f6a90614a00565b60405180910390fd5b612f7e83838361369f565b612f89600082612b7b565b6001600360008573ffffffffffffffffffffffffffffffffffffffff1673ffffffffffffffffffffffffffffffffffffffff1681526020019081526020016000206000828254612fd99190615017565b925050819055506001600360008473ffffffffffffffffffffffffffffffffffffffff1673ffffffffffffffffffffffffffffffffffffffff16815260200190815260200160002060008282546130309190614d8e565b92505081905550816002600083815260200190815260200160002060006101000a81548173ffffffffffffffffffffffffffffffffffffffff021916908373ffffffffffffffffffffffffffffffffffffffff160217905550808273ffffffffffffffffffffffffffffffffffffffff168473ffffffffffffffffffffffffffffffffffffffff167fddf252ad1be2c89b69c2b068fc378daa952ba7f163c4a11628f55a4df523b3ef60405160405180910390a4505050565b606060008251141561310c57604051806020016040528060008152509050613283565b6000604051806060016040528060408152602001615bb9604091399050600060036002855161313b9190614d8e565b6131459190614e1b565b60046131519190614fbd565b905060006020826131629190614d8e565b67ffffffffffffffff8111156131a1577f4e487b7100000000000000000000000000000000000000000000000000000000600052604160045260246000fd5b6040519080825280601f01601f1916602001820160405280156131d35781602001600182028036833780820191505090505b509050818152600183018586518101602084015b81831015613242576003830192508251603f8160121c168501518253600182019150603f81600c1c168501518253600182019150603f8160061c168501518253600182019150603f81168501518253600182019150506131e7565b60038951066001811461325c576002811461326c57613277565b613d3d60f01b6002830352613277565b603d60f81b60018303525b50505050508093505050505b919050565b60008160405160200161329b9190614684565b60405160208183030381529060405280519060200120836040516020016132c29190614684565b6040516020818303038152906040528051906020012014905092915050565b60606000821415613329576040518060400160405280600181526020017f300000000000000000000000000000000000000000000000000000000000000081525090506134b1565b600082905060005b6000821461335b5780806133449061517b565b915050600a826133549190614e1b565b9150613331565b60008167ffffffffffffffff81111561339d577f4e487b7100000000000000000000000000000000000000000000000000000000600052604160045260246000fd5b6040519080825280601f01601f1916602001820160405280156133cf5781602001600182028036833780820191505090505b50905060008290505b600086146134a9576001816133ed9190615017565b90506000600a80886133ff9190614e1b565b6134099190614fbd565b876134149190615017565b60306134209190614de4565b905060008160f81b905080848481518110613464577f4e487b7100000000000000000000000000000000000000000000000000000000600052603260045260246000fd5b60200101907effffffffffffffffffffffffffffffffffffffffffffffffffffffffffffff1916908160001a905350600a886134a09190614e1b565b975050506133d8565b819450505050505b919050565b6134c1848484612e8d565b6134cd848484846136a4565b61350c576040517f08c379a0000000000000000000000000000000000000000000000000000000008152600401613503906149a0565b60405180910390fd5b50505050565b606060405180602001604052806000815250905090565b606061353482612b07565b613573576040517f08c379a000000000000000000000000000000000000000000000000000000000815260040161356a90614be0565b60405180910390fd5b600061357d613512565b9050600081511161359d57604051806020016040528060008152506135c8565b806135a78461383b565b6040516020016135b892919061469b565b6040516020818303038152906040525b915050919050565b6135da83836139e8565b6135e760008484846136a4565b613626576040517f08c379a000000000000000000000000000000000000000000000000000000000815260040161361d906149a0565b60405180910390fd5b505050565b61363482612b07565b613673576040517f08c379a000000000000000000000000000000000000000000000000000000000815260040161366a90614b00565b60405180910390fd5b8060066000848152602001908152602001600020908051906020019061369a929190613bc9565b505050565b505050565b60006136c58473ffffffffffffffffffffffffffffffffffffffff16613bb6565b1561382e578373ffffffffffffffffffffffffffffffffffffffff1663150b7a026136ee612b73565b8786866040518563ffffffff1660e01b815260040161371094939291906148d7565b602060405180830381600087803b15801561372a57600080fd5b505af192505050801561375b57506040513d601f19601f820116820180604052508101906137589190613fef565b60015b6137de573d806000811461378b576040519150601f19603f3d011682016040523d82523d6000602084013e613790565b606091505b506000815114156137d6576040517f08c379a00000000000000000000000000000000000000000000000000000000081526004016137cd906149a0565b60405180910390fd5b805181602001fd5b63150b7a0260e01b7bffffffffffffffffffffffffffffffffffffffffffffffffffffffff1916817bffffffffffffffffffffffffffffffffffffffffffffffffffffffff191614915050613833565b600190505b949350505050565b60606000821415613883576040518060400160405280600181526020017f300000000000000000000000000000000000000000000000000000000000000081525090506139e3565b600082905060005b600082146138b557808061389e9061517b565b915050600a826138ae9190614e1b565b915061388b565b60008167ffffffffffffffff8111156138f7577f4e487b7100000000000000000000000000000000000000000000000000000000600052604160045260246000fd5b6040519080825280601f01601f1916602001820160405280156139295781602001600182028036833780820191505090505b5090505b600085146139dc576001826139429190615017565b9150600a8561395191906151c4565b603061395d9190614d8e565b60f81b818381518110613999577f4e487b7100000000000000000000000000000000000000000000000000000000600052603260045260246000fd5b60200101907effffffffffffffffffffffffffffffffffffffffffffffffffffffffffffff1916908160001a905350600a856139d59190614e1b565b945061392d565b8093505050505b919050565b600073ffffffffffffffffffffffffffffffffffffffff168273ffffffffffffffffffffffffffffffffffffffff161415613a58576040517f08c379a0000000000000000000000000000000000000000000000000000000008152600401613a4f90614b40565b60405180910390fd5b613a6181612b07565b15613aa1576040517f08c379a0000000000000000000000000000000000000000000000000000000008152600401613a98906149c0565b60405180910390fd5b613aad6000838361369f565b6001600360008473ffffffffffffffffffffffffffffffffffffffff1673ffffffffffffffffffffffffffffffffffffffff1681526020019081526020016000206000828254613afd9190614d8e565b92505081905550816002600083815260200190815260200160002060006101000a81548173ffffffffffffffffffffffffffffffffffffffff021916908373ffffffffffffffffffffffffffffffffffffffff160217905550808273ffffffffffffffffffffffffffffffffffffffff16600073ffffffffffffffffffffffffffffffffffffffff167fddf252ad1be2c89b69c2b068fc378daa952ba7f163c4a11628f55a4df523b3ef60405160405180910390a45050565b600080823b905060008111915050919050565b828054613bd590615118565b90600052602060002090601f016020900481019282613bf75760008555613c3e565b82601f10613c1057805160ff1916838001178555613c3e565b82800160010185558215613c3e579182015b82811115613c3d578251825591602001919060010190613c22565b5b509050613c4b9190613c4f565b5090565b5b80821115613c68576000816000905550600101613c50565b5090565b6000613c7f613c7a84614ce9565b614cc4565b905082815260208101848484011115613c9757600080fd5b613ca28482856150d6565b509392505050565b6000613cbd613cb884614d1a565b614cc4565b905082815260208101848484011115613cd557600080fd5b613ce08482856150d6565b509392505050565b600081359050613cf781615b45565b92915050565b600081359050613d0c81615b5c565b92915050565b600081359050613d2181615b73565b92915050565b600081359050613d3681615b8a565b92915050565b600081519050613d4b81615b8a565b92915050565b600082601f830112613d6257600080fd5b8135613d72848260208601613c6c565b91505092915050565b600082601f830112613d8c57600080fd5b8135613d9c848260208601613caa565b91505092915050565b600081359050613db481615ba1565b92915050565b600060208284031215613dcc57600080fd5b6000613dda84828501613ce8565b91505092915050565b60008060408385031215613df657600080fd5b6000613e0485828601613ce8565b9250506020613e1585828601613ce8565b9150509250929050565b600080600060608486031215613e3457600080fd5b6000613e4286828701613ce8565b9350506020613e5386828701613ce8565b9250506040613e6486828701613da5565b9150509250925092565b60008060008060808587031215613e8457600080fd5b6000613e9287828801613ce8565b9450506020613ea387828801613ce8565b9350506040613eb487828801613da5565b925050606085013567ffffffffffffffff811115613ed157600080fd5b613edd87828801613d51565b91505092959194509250565b60008060408385031215613efc57600080fd5b6000613f0a85828601613ce8565b9250506020613f1b85828601613cfd565b9150509250929050565b60008060408385031215613f3857600080fd5b6000613f4685828601613ce8565b9250506020613f5785828601613da5565b9150509250929050565b600060208284031215613f7357600080fd5b6000613f8184828501613d12565b91505092915050565b60008060408385031215613f9d57600080fd5b6000613fab85828601613d12565b9250506020613fbc85828601613da5565b9150509250929050565b600060208284031215613fd857600080fd5b6000613fe684828501613d27565b91505092915050565b60006020828403121561400157600080fd5b600061400f84828501613d3c565b91505092915050565b60006020828403121561402a57600080fd5b600082013567ffffffffffffffff81111561404457600080fd5b61405084828501613d7b565b91505092915050565b60006020828403121561406b57600080fd5b600061407984828501613da5565b91505092915050565b61408b8161504b565b82525050565b61409a8161505d565b82525050565b60006140ab82614d4b565b6140b58185614d61565b93506140c58185602086016150e5565b6140ce816152b1565b840191505092915050565b60006140e482614d56565b6140ee8185614d72565b93506140fe8185602086016150e5565b614107816152b1565b840191505092915050565b600061411d82614d56565b6141278185614d83565b93506141378185602086016150e5565b80840191505092915050565b6000614150601b83614d72565b915061415b826152cf565b602082019050919050565b6000614173602683614d72565b915061417e826152f8565b604082019050919050565b6000614196603283614d72565b91506141a182615347565b604082019050919050565b60006141b9601c83614d72565b91506141c482615396565b602082019050919050565b60006141dc600a83614d83565b91506141e7826153bf565b600a82019050919050565b60006141ff601483614d72565b915061420a826153e8565b602082019050919050565b6000614222601483614d83565b915061422d82615411565b601482019050919050565b6000614245602483614d72565b91506142508261543a565b604082019050919050565b6000614268601983614d72565b915061427382615489565b602082019050919050565b600061428b602c83614d72565b9150614296826154b2565b604082019050919050565b60006142ae601d83614d83565b91506142b982615501565b601d82019050919050565b60006142d1600183614d83565b91506142dc8261552a565b600182019050919050565b60006142f4600383614d83565b91506142ff82615553565b600382019050919050565b6000614317601c83614d72565b91506143228261557c565b602082019050919050565b600061433a603883614d72565b9150614345826155a5565b604082019050919050565b600061435d602a83614d72565b9150614368826155f4565b604082019050919050565b6000614380601683614d72565b915061438b82615643565b602082019050919050565b60006143a3602983614d72565b91506143ae8261566c565b604082019050919050565b60006143c6602e83614d72565b91506143d1826156bb565b604082019050919050565b60006143e9602083614d72565b91506143f48261570a565b602082019050919050565b600061440c600283614d83565b915061441782615733565b600282019050919050565b600061442f602083614d72565b915061443a8261575c565b602082019050919050565b6000614452603183614d72565b915061445d82615785565b604082019050919050565b6000614475602c83614d72565b9150614480826157d4565b604082019050919050565b6000614498602083614d72565b91506144a382615823565b602082019050919050565b60006144bb602983614d72565b91506144c68261584c565b604082019050919050565b60006144de603083614d83565b91506144e98261589b565b603082019050919050565b6000614501602f83614d72565b915061450c826158ea565b604082019050919050565b6000614524601283614d83565b915061452f82615939565b601282019050919050565b6000614547601b83614d72565b915061455282615962565b602082019050919050565b600061456a602783614d83565b91506145758261598b565b602782019050919050565b600061458d602183614d72565b9150614598826159da565b604082019050919050565b60006145b0603183614d72565b91506145bb82615a29565b604082019050919050565b60006145d3601683614d72565b91506145de82615a78565b602082019050919050565b60006145f6600283614d83565b915061460182615aa1565b600282019050919050565b6000614619600a83614d83565b915061462482615aca565b600a82019050919050565b600061463c600683614d83565b915061464782615af3565b600682019050919050565b600061465f600983614d83565b915061466a82615b1c565b600982019050919050565b61467e816150bf565b82525050565b60006146908284614112565b915081905092915050565b60006146a78285614112565b91506146b38284614112565b91508190509392505050565b60006146cb8285614112565b91506146d6826141cf565b91506146e28284614112565b91506146ed826142e7565b91508190509392505050565b60006147058285614112565b9150614710826142a1565b915061471c8284614112565b9150614727826142e7565b91508190509392505050565b600061473f8286614112565b915061474a826142c4565b91506147568285614112565b9150614761826142c4565b915061476d8284614112565b9150614778826142c4565b9150819050949350505050565b60006147918284614112565b915061479c8261462f565b915081905092915050565b60006147b282614215565b91506147bd8261455d565b91506147c882614517565b91506147d38261460c565b91506147df8284614112565b91506147ea826143ff565b915081905092915050565b6000614800826142c4565b915061480c8288614112565b9150614817826142c4565b91506148238287614112565b915061482e826142c4565b915061483a8286614112565b9150614845826142c4565b91506148518285614112565b915061485c826142c4565b91506148688284614112565b91508190509695505050505050565b6000614882826144d1565b915061488e8285614112565b915061489982614652565b91506148a58284614112565b91506148b0826145e9565b91508190509392505050565b60006020820190506148d16000830184614082565b92915050565b60006080820190506148ec6000830187614082565b6148f96020830186614082565b6149066040830185614675565b818103606083015261491881846140a0565b905095945050505050565b60006020820190506149386000830184614091565b92915050565b6000602082019050818103600083015261495881846140d9565b905092915050565b6000602082019050818103600083015261497981614143565b9050919050565b6000602082019050818103600083015261499981614166565b9050919050565b600060208201905081810360008301526149b981614189565b9050919050565b600060208201905081810360008301526149d9816141ac565b9050919050565b600060208201905081810360008301526149f9816141f2565b9050919050565b60006020820190508181036000830152614a1981614238565b9050919050565b60006020820190508181036000830152614a398161425b565b9050919050565b60006020820190508181036000830152614a598161427e565b9050919050565b60006020820190508181036000830152614a798161430a565b9050919050565b60006020820190508181036000830152614a998161432d565b9050919050565b60006020820190508181036000830152614ab981614350565b9050919050565b60006020820190508181036000830152614ad981614373565b9050919050565b60006020820190508181036000830152614af981614396565b9050919050565b60006020820190508181036000830152614b19816143b9565b9050919050565b60006020820190508181036000830152614b39816143dc565b9050919050565b60006020820190508181036000830152614b5981614422565b9050919050565b60006020820190508181036000830152614b7981614445565b9050919050565b60006020820190508181036000830152614b9981614468565b9050919050565b60006020820190508181036000830152614bb98161448b565b9050919050565b60006020820190508181036000830152614bd9816144ae565b9050919050565b60006020820190508181036000830152614bf9816144f4565b9050919050565b60006020820190508181036000830152614c198161453a565b9050919050565b60006020820190508181036000830152614c3981614580565b9050919050565b60006020820190508181036000830152614c59816145a3565b9050919050565b60006020820190508181036000830152614c79816145c6565b9050919050565b6000602082019050614c956000830184614675565b92915050565b6000604082019050614cb06000830185614675565b614cbd6020830184614675565b9392505050565b6000614cce614cdf565b9050614cda828261514a565b919050565b6000604051905090565b600067ffffffffffffffff821115614d0457614d03615282565b5b614d0d826152b1565b9050602081019050919050565b600067ffffffffffffffff821115614d3557614d34615282565b5b614d3e826152b1565b9050602081019050919050565b600081519050919050565b600081519050919050565b600082825260208201905092915050565b600082825260208201905092915050565b600081905092915050565b6000614d99826150bf565b9150614da4836150bf565b9250827fffffffffffffffffffffffffffffffffffffffffffffffffffffffffffffffff03821115614dd957614dd86151f5565b5b828201905092915050565b6000614def826150c9565b9150614dfa836150c9565b92508260ff03821115614e1057614e0f6151f5565b5b828201905092915050565b6000614e26826150bf565b9150614e31836150bf565b925082614e4157614e40615224565b5b828204905092915050565b6000808291508390505b6001851115614e9657808604811115614e7257614e716151f5565b5b6001851615614e815780820291505b8081029050614e8f856152c2565b9450614e56565b94509492505050565b6000614eaa826150bf565b9150614eb5836150bf565b9250614ee27fffffffffffffffffffffffffffffffffffffffffffffffffffffffffffffffff8484614eea565b905092915050565b600082614efa5760019050614fb6565b81614f085760009050614fb6565b8160018114614f1e5760028114614f2857614f57565b6001915050614fb6565b60ff841115614f3a57614f396151f5565b5b8360020a915084821115614f5157614f506151f5565b5b50614fb6565b5060208310610133831016604e8410600b8410161715614f8c5782820a905083811115614f8757614f866151f5565b5b614fb6565b614f998484846001614e4c565b92509050818404811115614fb057614faf6151f5565b5b81810290505b9392505050565b6000614fc8826150bf565b9150614fd3836150bf565b9250817fffffffffffffffffffffffffffffffffffffffffffffffffffffffffffffffff048311821515161561500c5761500b6151f5565b5b828202905092915050565b6000615022826150bf565b915061502d836150bf565b9250828210156150405761503f6151f5565b5b828203905092915050565b60006150568261509f565b9050919050565b60008115159050919050565b6000819050919050565b60007fffffffff0000000000000000000000000000000000000000000000000000000082169050919050565b600073ffffffffffffffffffffffffffffffffffffffff82169050919050565b6000819050919050565b600060ff82169050919050565b82818337600083830152505050565b60005b838110156151035780820151818401526020810190506150e8565b83811115615112576000848401525b50505050565b6000600282049050600182168061513057607f821691505b6020821081141561514457615143615253565b5b50919050565b615153826152b1565b810181811067ffffffffffffffff8211171561517257615171615282565b5b80604052505050565b6000615186826150bf565b91507fffffffffffffffffffffffffffffffffffffffffffffffffffffffffffffffff8214156151b9576151b86151f5565b5b600182019050919050565b60006151cf826150bf565b91506151da836150bf565b9250826151ea576151e9615224565b5b828206905092915050565b7f4e487b7100000000000000000000000000000000000000000000000000000000600052601160045260246000fd5b7f4e487b7100000000000000000000000000000000000000000000000000000000600052601260045260246000fd5b7f4e487b7100000000000000000000000000000000000000000000000000000000600052602260045260246000fd5b7f4e487b7100000000000000000000000000000000000000000000000000000000600052604160045260246000fd5b6000601f19601f8301169050919050565b60008160011c9050919050565b7f4f776e65643a206f6e6c79206f776e65722063616e20646f2069740000000000600082015250565b7f47656e65736973206d61736b206e667420686173206265656e206d696e74656460008201527f206f7665722e0000000000000000000000000000000000000000000000000000602082015250565b7f4552433732313a207472616e7366657220746f206e6f6e20455243373231526560008201527f63656976657220696d706c656d656e7465720000000000000000000000000000602082015250565b7f4552433732313a20746f6b656e20616c7265616479206d696e74656400000000600082015250565b7f27207374726f6b653d2700000000000000000000000000000000000000000000600082015250565b7f5265717565737420696420686173206578697374000000000000000000000000600082015250565b7f7b226e616d65223a2022535647204e4654222c20000000000000000000000000600082015250565b7f4552433732313a207472616e7366657220746f20746865207a65726f2061646460008201527f7265737300000000000000000000000000000000000000000000000000000000602082015250565b7f4552433732313a20617070726f766520746f2063616c6c657200000000000000600082015250565b7f4552433732313a206f70657261746f7220717565727920666f72206e6f6e657860008201527f697374656e7420746f6b656e0000000000000000000000000000000000000000602082015250565b7f272066696c6c3d277472616e73706172656e7427207374726f6b653d27000000600082015250565b7f2000000000000000000000000000000000000000000000000000000000000000600082015250565b7f272f3e0000000000000000000000000000000000000000000000000000000000600082015250565b7f746f6b656e55524920697320616c7265616420616c6c20736574202100000000600082015250565b7f4552433732313a20617070726f76652063616c6c6572206973206e6f74206f7760008201527f6e6572206e6f7220617070726f76656420666f7220616c6c0000000000000000602082015250565b7f4552433732313a2062616c616e636520717565727920666f7220746865207a6560008201527f726f206164647265737300000000000000000000000000000000000000000000602082015250565b7f4d696e743a206164642061646472206973207a65726f00000000000000000000600082015250565b7f4552433732313a206f776e657220717565727920666f72206e6f6e657869737460008201527f656e7420746f6b656e0000000000000000000000000000000000000000000000602082015250565b7f45524337323155524953746f726167653a2055524920736574206f66206e6f6e60008201527f6578697374656e7420746f6b656e000000000000000000000000000000000000602082015250565b7f546f6b656e496420686173206e6f74206265656e206d696e7465642079657421600082015250565b7f227d000000000000000000000000000000000000000000000000000000000000600082015250565b7f4552433732313a206d696e7420746f20746865207a65726f2061646472657373600082015250565b7f45524337323155524953746f726167653a2055524920717565727920666f722060008201527f6e6f6e6578697374656e7420746f6b656e000000000000000000000000000000602082015250565b7f4552433732313a20617070726f76656420717565727920666f72206e6f6e657860008201527f697374656e7420746f6b656e0000000000000000000000000000000000000000602082015250565b7f4f776e65643a20736574207a65726f206164647265737320746f206f776e6572600082015250565b7f4552433732313a207472616e73666572206f6620746f6b656e2074686174206960008201527f73206e6f74206f776e0000000000000000000000000000000000000000000000602082015250565b7f3c73766720786d6c6e733d27687474703a2f2f7777772e77332e6f72672f323060008201527f30302f73766727206865696768743d2700000000000000000000000000000000602082015250565b7f4552433732314d657461646174613a2055524920717565727920666f72206e6f60008201527f6e6578697374656e7420746f6b656e0000000000000000000000000000000000602082015250565b7f2261747472696275746573223a2022222c200000000000000000000000000000600082015250565b7f4d696e743a206f6e6c79204d696e7465722063616e20646f2069740000000000600082015250565b7f226465736372697074696f6e223a2022416e204e4654206261736564206f6e2060008201527f53564721222c2000000000000000000000000000000000000000000000000000602082015250565b7f4552433732313a20617070726f76616c20746f2063757272656e74206f776e6560008201527f7200000000000000000000000000000000000000000000000000000000000000602082015250565b7f4552433732313a207472616e736665722063616c6c6572206973206e6f74206f60008201527f776e6572206e6f7220617070726f766564000000000000000000000000000000602082015250565b7f4d696e743a2072656d6f76652061646472207a65726f00000000000000000000600082015250565b7f273e000000000000000000000000000000000000000000000000000000000000600082015250565b7f22696d616765223a202200000000000000000000000000000000000000000000600082015250565b7f3c2f7376673e0000000000000000000000000000000000000000000000000000600082015250565b7f272077696474683d270000000000000000000000000000000000000000000000600082015250565b615b4e8161504b565b8114615b5957600080fd5b50565b615b658161505d565b8114615b7057600080fd5b50565b615b7c81615069565b8114615b8757600080fd5b50565b615b9381615073565b8114615b9e57600080fd5b50565b615baa816150bf565b8114615bb557600080fd5b5056fe4142434445464748494a4b4c4d4e4f505152535455565758595a6162636465666768696a6b6c6d6e6f707172737475767778797a303132333435363738392b2fa2646970667358221220f0b16501235c08dd2d37cb0e79ed4c78cc7c67b26909925f90ccc5d4dc5f587264736f6c63430008040033",
  "linkReferences": {},
  "deployedLinkReferences": {}
}